{
  "transactions": [
    {
      "hash": null,
      "transactionType": "CALL",
      "contractName": null,
      "contractAddress": "0xe8a005a2fe28f2b8916cccd2c5f634e1b74b5e3e",
      "function": "applyChainUpdates((uint64,bool,bytes,bytes,(bool,uint128,uint128),(bool,uint128,uint128))[])",
      "arguments": [
        "[(16015286601757825753, true, 0x000000000000000000000000f7c896833867b337480e531152a299d5308317f3, 0x000000000000000000000000538d6eb3d0014290f2f3c0c5b6d0998aa00d6293, (false, 0, 0), (false, 0, 0))]"
      ],
      "transaction": {
        "from": "0x473fa0f100981fffff40db48b29b97af9a44dbbc",
        "to": "0xe8a005a2fe28f2b8916cccd2c5f634e1b74b5e3e",
        "gas": "0x8125",
        "value": "0x0",
        "input": "0xdb6327dc000000000000000000000000000000000000000000000000000000000000002000000000000000000000000000000000000000000000000000000000000000010000000000000000000000000000000000000000000000000000000000000020000000000000000000000000000000000000000000000000de41ba4fc9d91ad90000000000000000000000000000000000000000000000000000000000000001000000000000000000000000000000000000000000000000000000000000014000000000000000000000000000000000000000000000000000000000000001800000000000000000000000000000000000000000000000000000000000000000000000000000000000000000000000000000000000000000000000000000000000000000000000000000000000000000000000000000000000000000000000000000000000000000000000000000000000000000000000000000000000000000000000000000000000000000000000000000000000000000000000000000000000000000000000000000000000000000000000000000000000000000000000000000000000000000000000000000000000000000000000000000000000000020000000000000000000000000f7c896833867b337480e531152a299d5308317f30000000000000000000000000000000000000000000000000000000000000020000000000000000000000000538d6eb3d0014290f2f3c0c5b6d0998aa00d6293",
        "nonce": "0x7",
        "chainId": "0x12c"
      },
      "additionalContracts": [],
      "isFixedGasLimit": false
    }
  ],
  "receipts": [],
  "libraries": [],
  "pending": [],
  "returns": {},
  "timestamp": 1753389735,
  "chain": 300,
  "commit": "f382351"
}