{
  "transactions": [
    {
      "hash": "0xb47e43ff7962a97afbb056fc57beffc4be19841db00d67abc80f6a5805f97f51",
      "transactionType": "CALL",
      "contractName": null,
      "contractAddress": "0xe8a005a2fe28f2b8916cccd2c5f634e1b74b5e3e",
      "function": "applyChainUpdates((uint64,bool,bytes,bytes,(bool,uint128,uint128),(bool,uint128,uint128))[])",
      "arguments": [
        "[(16015286601757825753, true, 0x000000000000000000000000f7c896833867b337480e531152a299d5308317f3, 0x000000000000000000000000538d6eb3d0014290f2f3c0c5b6d0998aa00d6293, (false, 0, 0), (false, 0, 0))]"
      ],
      "transaction": {
        "from": "0x473fa0f100981fffff40db48b29b97af9a44dbbc",
        "to": "0xe8a005a2fe28f2b8916cccd2c5f634e1b74b5e3e",
        "gas": "0x7c999",
        "value": "0x0",
        "input": "0xdb6327dc000000000000000000000000000000000000000000000000000000000000002000000000000000000000000000000000000000000000000000000000000000010000000000000000000000000000000000000000000000000000000000000020000000000000000000000000000000000000000000000000de41ba4fc9d91ad90000000000000000000000000000000000000000000000000000000000000001000000000000000000000000000000000000000000000000000000000000014000000000000000000000000000000000000000000000000000000000000001800000000000000000000000000000000000000000000000000000000000000000000000000000000000000000000000000000000000000000000000000000000000000000000000000000000000000000000000000000000000000000000000000000000000000000000000000000000000000000000000000000000000000000000000000000000000000000000000000000000000000000000000000000000000000000000000000000000000000000000000000000000000000000000000000000000000000000000000000000000000000000000000000000000000000020000000000000000000000000f7c896833867b337480e531152a299d5308317f30000000000000000000000000000000000000000000000000000000000000020000000000000000000000000538d6eb3d0014290f2f3c0c5b6d0998aa00d6293",
        "nonce": "0x6",
        "chainId": "0x12c"
      },
      "additionalContracts": [],
      "isFixedGasLimit": false
    }
  ],
  "receipts": [
    {
      "status": "0x1",
      "cumulativeGasUsed": "0x0",
      "logs": [
        {
          "address": "0x000000000000000000000000000000000000800a",
          "topics": [
            "0xddf252ad1be2c89b69c2b068fc378daa952ba7f163c4a11628f55a4df523b3ef",
            "0x000000000000000000000000473fa0f100981fffff40db48b29b97af9a44dbbc",
            "0x0000000000000000000000000000000000000000000000000000000000008001"
          ],
          "data": "0x0000000000000000000000000000000000000000000000000000173562560619",
          "blockHash": "0x0db03cd82ae2b29a580f1bc7090597c5a5682daf450f0b7faceaa35643d130a6",
          "blockNumber": "0x549e34",
          "blockTimestamp": "0x68829474",
          "transactionHash": "0xb47e43ff7962a97afbb056fc57beffc4be19841db00d67abc80f6a5805f97f51",
          "transactionIndex": "0x0",
          "logIndex": "0x0",
          "removed": false
        },
        {
          "address": "0x000000000000000000000000000000000000800a",
          "topics": [
            "0xddf252ad1be2c89b69c2b068fc378daa952ba7f163c4a11628f55a4df523b3ef",
            "0x0000000000000000000000000000000000000000000000000000000000008001",
            "0x000000000000000000000000473fa0f100981fffff40db48b29b97af9a44dbbc"
          ],
          "data": "0x00000000000000000000000000000000000000000000000000000b9ab12ee7d9",
          "blockHash": "0x0db03cd82ae2b29a580f1bc7090597c5a5682daf450f0b7faceaa35643d130a6",
          "blockNumber": "0x549e34",
          "blockTimestamp": "0x68829474",
          "transactionHash": "0xb47e43ff7962a97afbb056fc57beffc4be19841db00d67abc80f6a5805f97f51",
          "transactionIndex": "0x0",
          "logIndex": "0x1",
          "removed": false
        },
        {
          "address": "0xe8a005a2fe28f2b8916cccd2c5f634e1b74b5e3e",
          "topics": [
            "0x8d340f17e19058004c20453540862a9c62778504476f6756755cb33bcd6c38c2"
          ],
          "data": "0x000000000000000000000000000000000000000000000000de41ba4fc9d91ad900000000000000000000000000000000000000000000000000000000000001000000000000000000000000000000000000000000000000000000000000000000000000000000000000000000000000000000000000000000000000000000000000000000000000000000000000000000000000000000000000000000000000000000000000000000000000000000000000000000000000000000000000000000000000000000000000000000000000000000000000000000000000000000000000000000000000000000000000000000000000000000000000000000000000000000000000000000000000000000000000000000000000000000000000000020000000000000000000000000538d6eb3d0014290f2f3c0c5b6d0998aa00d6293",
          "blockHash": "0x0db03cd82ae2b29a580f1bc7090597c5a5682daf450f0b7faceaa35643d130a6",
          "blockNumber": "0x549e34",
          "blockTimestamp": "0x68829474",
          "transactionHash": "0xb47e43ff7962a97afbb056fc57beffc4be19841db00d67abc80f6a5805f97f51",
          "transactionIndex": "0x0",
          "logIndex": "0x2",
          "removed": false
        },
        {
          "address": "0x000000000000000000000000000000000000800a",
          "topics": [
            "0xddf252ad1be2c89b69c2b068fc378daa952ba7f163c4a11628f55a4df523b3ef",
            "0x0000000000000000000000000000000000000000000000000000000000008001",
            "0x000000000000000000000000473fa0f100981fffff40db48b29b97af9a44dbbc"
          ],
          "data": "0x000000000000000000000000000000000000000000000000000007e4e1f70440",
          "blockHash": "0x0db03cd82ae2b29a580f1bc7090597c5a5682daf450f0b7faceaa35643d130a6",
          "blockNumber": "0x549e34",
          "blockTimestamp": "0x68829474",
          "transactionHash": "0xb47e43ff7962a97afbb056fc57beffc4be19841db00d67abc80f6a5805f97f51",
          "transactionIndex": "0x0",
          "logIndex": "0x3",
          "removed": false
        }
      ],
      "logsBloom": "0x00000000000400400000000000000000000000000000000000000000000000000000000000000000000000000000000000000000000000000004000000000000000000000000040000000008002000000000000000100000000000000000080000000000000000000000000000000000010000001000000000000010000000000000000000000000000004000000000000000000000000000000000000000000000000000000100000000000000000000000000000000100000000000000000000000002008000000000000000000000000000000000000000000000000000000000000000000000000000000000400000000000000000000100000000000000",
      "type": "0x2",
      "transactionHash": "0xb47e43ff7962a97afbb056fc57beffc4be19841db00d67abc80f6a5805f97f51",
      "transactionIndex": "0x0",
      "blockHash": "0x0db03cd82ae2b29a580f1bc7090597c5a5682daf450f0b7faceaa35643d130a6",
      "blockNumber": "0x549e34",
      "gasUsed": "0x27d68",
      "effectiveGasPrice": "0x17d7840",
      "from": "0x473fa0f100981fffff40db48b29b97af9a44dbbc",
      "to": "0xe8a005a2fe28f2b8916cccd2c5f634e1b74b5e3e",
      "contractAddress": null,
      "l1BatchNumber": null,
      "l1BatchTxIndex": null,
      "l2ToL1Logs": []
    }
  ],
  "libraries": [],
  "pending": [],
  "returns": {},
  "timestamp": 1753388151,
  "chain": 300,
  "commit": "a715f0c"
}