{
  "transactions": [
    {
      "hash": "0x64fd36ffa5547a8c629fa353c7a8fb1bb558b04a3b3230c059f811bc72db12c3",
      "transactionType": "CALL",
      "contractName": null,
      "contractAddress": "0xf7c896833867b337480e531152a299d5308317f3",
      "function": "applyChainUpdates((uint64,bool,bytes,bytes,(bool,uint128,uint128),(bool,uint128,uint128))[])",
      "arguments": [
        "[(6898391096552792247, true, 0x000000000000000000000000e8a005a2fe28f2b8916cccd2c5f634e1b74b5e3e, 0x000000000000000000000000538d6eb3d0014290f2f3c0c5b6d0998aa00d6293, (false, 0, 0), (false, 0, 0))]"
      ],
      "transaction": {
        "from": "0x473fa0f100981fffff40db48b29b97af9a44dbbc",
        "to": "0xf7c896833867b337480e531152a299d5308317f3",
        "gas": "0x511a8",
        "value": "0x0",
        "input": "0xdb6327dc0000000000000000000000000000000000000000000000000000000000000020000000000000000000000000000000000000000000000000000000000000000100000000000000000000000000000000000000000000000000000000000000200000000000000000000000000000000000000000000000005fbc02272fbf20b70000000000000000000000000000000000000000000000000000000000000001000000000000000000000000000000000000000000000000000000000000014000000000000000000000000000000000000000000000000000000000000001800000000000000000000000000000000000000000000000000000000000000000000000000000000000000000000000000000000000000000000000000000000000000000000000000000000000000000000000000000000000000000000000000000000000000000000000000000000000000000000000000000000000000000000000000000000000000000000000000000000000000000000000000000000000000000000000000000000000000000000000000000000000000000000000000000000000000000000000000000000000000000000000000000000000000020000000000000000000000000e8a005a2fe28f2b8916cccd2c5f634e1b74b5e3e0000000000000000000000000000000000000000000000000000000000000020000000000000000000000000538d6eb3d0014290f2f3c0c5b6d0998aa00d6293",
        "nonce": "0xce",
        "chainId": "0xaa36a7"
      },
      "additionalContracts": [],
      "isFixedGasLimit": false
    }
  ],
  "receipts": [
    {
      "status": "0x1",
      "cumulativeGasUsed": "0xc382f8",
      "logs": [
        {
          "address": "0xf7c896833867b337480e531152a299d5308317f3",
          "topics": [
            "0x8d340f17e19058004c20453540862a9c62778504476f6756755cb33bcd6c38c2"
          ],
          "data": "0x0000000000000000000000000000000000000000000000005fbc02272fbf20b700000000000000000000000000000000000000000000000000000000000001000000000000000000000000000000000000000000000000000000000000000000000000000000000000000000000000000000000000000000000000000000000000000000000000000000000000000000000000000000000000000000000000000000000000000000000000000000000000000000000000000000000000000000000000000000000000000000000000000000000000000000000000000000000000000000000000000000000000000000000000000000000000000000000000000000000000000000000000000000000000000000000000000000000000000020000000000000000000000000538d6eb3d0014290f2f3c0c5b6d0998aa00d6293",
          "blockHash": "0x636cc234399e36b5e135b9a35403f1fc17dc6630243defb737cc042c93b0b145",
          "blockNumber": "0x86cecb",
          "blockTimestamp": "0x6882a2c0",
          "transactionHash": "0x64fd36ffa5547a8c629fa353c7a8fb1bb558b04a3b3230c059f811bc72db12c3",
          "transactionIndex": "0x67",
          "logIndex": "0x85",
          "removed": false
        }
      ],
      "logsBloom": "0x00000000000000402000000000000000000000000000000000000000000000000000000000000000000000000000000000000000000000000004000000000000000000000000000000000000000000000000000000000000000000000000000000000000000000000000000000000000000000000000000000004000000000000000000000000000000000000000000000000000000000000000000000000000000000000000000000000000000000000000000000000000000000000000000000000000000000000000000000000000000000000000000000000000000000000000000020000000000000000000000000000000000000000100000000000000",
      "type": "0x2",
      "transactionHash": "0x64fd36ffa5547a8c629fa353c7a8fb1bb558b04a3b3230c059f811bc72db12c3",
      "transactionIndex": "0x67",
      "blockHash": "0x636cc234399e36b5e135b9a35403f1fc17dc6630243defb737cc042c93b0b145",
      "blockNumber": "0x86cecb",
      "gasUsed": "0x3ab7c",
      "effectiveGasPrice": "0xf424e",
      "from": "0x473fa0f100981fffff40db48b29b97af9a44dbbc",
      "to": "0xf7c896833867b337480e531152a299d5308317f3",
      "contractAddress": null
    }
  ],
  "libraries": [],
  "pending": [],
  "returns": {},
  "timestamp": 1753391809,
  "chain": 11155111,
  "commit": "f382351"
}