{
  "transactions": [
    {
      "hash": "0x34e0120712fd6377b5b8f96b11e15b4a7a491fbd23cfdd134855db44f3f99e24",
      "transactionType": "CALL",
      "contractName": null,
      "contractAddress": "0x779877a7b0d9e8603169ddbd7836e478b4624789",
      "function": "approve(address,uint256)",
      "arguments": [
        "0x0BF3dE8c5D3e8A2B34D2BEeB17ABfCeBaf363A59",
        "14759745834886985"
      ],
      "transaction": {
        "from": "0x473fa0f100981fffff40db48b29b97af9a44dbbc",
        "to": "0x779877a7b0d9e8603169ddbd7836e478b4624789",
        "gas": "0x1081f",
        "value": "0x0",
        "input": "0x095ea7b30000000000000000000000000bf3de8c5d3e8a2b34d2beeb17abfcebaf363a5900000000000000000000000000000000000000000000000000346fe91f76a749",
        "nonce": "0xcf",
        "chainId": "0xaa36a7"
      },
      "additionalContracts": [],
      "isFixedGasLimit": false
    },
    {
      "hash": "0xf02f3ffadaff75b42bce45933d7623a7099a089378b2e9ea6d39bfa726f29213",
      "transactionType": "CALL",
      "contractName": null,
      "contractAddress": "0x538d6eb3d0014290f2f3c0c5b6d0998aa00d6293",
      "function": "approve(address,uint256)",
      "arguments": [
        "0x0BF3dE8c5D3e8A2B34D2BEeB17ABfCeBaf363A59",
        "100000"
      ],
      "transaction": {
        "from": "0x473fa0f100981fffff40db48b29b97af9a44dbbc",
        "to": "0x538d6eb3d0014290f2f3c0c5b6d0998aa00d6293",
        "gas": "0x10693",
        "value": "0x0",
        "input": "0x095ea7b30000000000000000000000000bf3de8c5d3e8a2b34d2beeb17abfcebaf363a5900000000000000000000000000000000000000000000000000000000000186a0",
        "nonce": "0xd0",
        "chainId": "0xaa36a7"
      },
      "additionalContracts": [],
      "isFixedGasLimit": false
    },
    {
      "hash": "0xc19fba56d0cfc7efc4577b562f4a7c133a4980f65cfa955ba099899de039201d",
      "transactionType": "CALL",
      "contractName": null,
      "contractAddress": "0x0bf3de8c5d3e8a2b34d2beeb17abfcebaf363a59",
      "function": "ccipSend(uint64,(bytes,bytes,(address,uint256)[],address,bytes))",
      "arguments": [
        "6898391096552792247",
        "(0x000000000000000000000000473fa0f100981fffff40db48b29b97af9a44dbbc, 0x, [(0x538D6EB3d0014290F2f3c0c5B6D0998aa00d6293, 100000)], 0x779877A7B0D9E8603169DdbD7836e478b4624789, 0x97a657c90000000000000000000000000000000000000000000000000000000000000000)"
      ],
      "transaction": {
        "from": "0x473fa0f100981fffff40db48b29b97af9a44dbbc",
        "to": "0x0bf3de8c5d3e8a2b34d2beeb17abfcebaf363a59",
        "gas": "0x5ae9a",
        "value": "0x0",
        "input": "0x96f4e9f90000000000000000000000000000000000000000000000005fbc02272fbf20b7000000000000000000000000000000000000000000000000000000000000004000000000000000000000000000000000000000000000000000000000000000a000000000000000000000000000000000000000000000000000000000000000e00000000000000000000000000000000000000000000000000000000000000100000000000000000000000000779877a7b0d9e8603169ddbd7836e478b462478900000000000000000000000000000000000000000000000000000000000001600000000000000000000000000000000000000000000000000000000000000020000000000000000000000000473fa0f100981fffff40db48b29b97af9a44dbbc00000000000000000000000000000000000000000000000000000000000000000000000000000000000000000000000000000000000000000000000000000001000000000000000000000000538d6eb3d0014290f2f3c0c5b6d0998aa00d629300000000000000000000000000000000000000000000000000000000000186a0000000000000000000000000000000000000000000000000000000000000002497a657c9000000000000000000000000000000000000000000000000000000000000000000000000000000000000000000000000000000000000000000000000",
        "nonce": "0xd1",
        "chainId": "0xaa36a7"
      },
      "additionalContracts": [],
      "isFixedGasLimit": false
    }
  ],
  "receipts": [
    {
      "status": "0x1",
      "cumulativeGasUsed": "0x146b2f3",
      "logs": [
        {
          "address": "0x779877a7b0d9e8603169ddbd7836e478b4624789",
          "topics": [
            "0x8c5be1e5ebec7d5bd14f71427d1e84f3dd0314c0f7b2291e5b200ac8c7c3b925",
            "0x000000000000000000000000473fa0f100981fffff40db48b29b97af9a44dbbc",
            "0x0000000000000000000000000bf3de8c5d3e8a2b34d2beeb17abfcebaf363a59"
          ],
          "data": "0x00000000000000000000000000000000000000000000000000346fe91f76a749",
          "blockHash": "0xda799e6115097e4264a1a9bb3b56a11f1ed3cdfecc40e0d5f311a0ae3aa55135",
          "blockNumber": "0x86cece",
          "blockTimestamp": "0x6882a2e4",
          "transactionHash": "0x34e0120712fd6377b5b8f96b11e15b4a7a491fbd23cfdd134855db44f3f99e24",
          "transactionIndex": "0x8f",
          "logIndex": "0x10e",
          "removed": false
        }
      ],
      "logsBloom": "0x00000004000040000000000000000000000000000000000000000000000000000000000000000000000000000000000000000000000000000000000000200000000000000000000000000000000000000000000000000000000000000000000000000000000100000000000000000000010000000000000000000000000000000000000000000000000000000000800000000000000000000000000000000000020000000000080000000000000000000000000000000100000000000000000000000000000000000000000000000000000000000000000100000000000000000010000000000000000000000000400000000000000000000000000000000000",
      "type": "0x2",
      "transactionHash": "0x34e0120712fd6377b5b8f96b11e15b4a7a491fbd23cfdd134855db44f3f99e24",
      "transactionIndex": "0x8f",
      "blockHash": "0xda799e6115097e4264a1a9bb3b56a11f1ed3cdfecc40e0d5f311a0ae3aa55135",
      "blockNumber": "0x86cece",
      "gasUsed": "0xb499",
      "effectiveGasPrice": "0xf424f",
      "from": "0x473fa0f100981fffff40db48b29b97af9a44dbbc",
      "to": "0x779877a7b0d9e8603169ddbd7836e478b4624789",
      "contractAddress": null
    },
    {
      "status": "0x1",
      "cumulativeGasUsed": "0x147667d",
      "logs": [
        {
          "address": "0x538d6eb3d0014290f2f3c0c5b6d0998aa00d6293",
          "topics": [
            "0x8c5be1e5ebec7d5bd14f71427d1e84f3dd0314c0f7b2291e5b200ac8c7c3b925",
            "0x000000000000000000000000473fa0f100981fffff40db48b29b97af9a44dbbc",
            "0x0000000000000000000000000bf3de8c5d3e8a2b34d2beeb17abfcebaf363a59"
          ],
          "data": "0x00000000000000000000000000000000000000000000000000000000000186a0",
          "blockHash": "0xda799e6115097e4264a1a9bb3b56a11f1ed3cdfecc40e0d5f311a0ae3aa55135",
          "blockNumber": "0x86cece",
          "blockTimestamp": "0x6882a2e4",
          "transactionHash": "0xf02f3ffadaff75b42bce45933d7623a7099a089378b2e9ea6d39bfa726f29213",
          "transactionIndex": "0x90",
          "logIndex": "0x10f",
          "removed": false
        }
      ],
      "logsBloom": "0x00000008000040000000000000000000000000000000000000000000000000000000000000000000000000000000000000000000000000000000000000200000000000000000000000000000000000000000000000000000000000000000000000000000000100000000000000000000010000000000000000000000000000000000000000000000000000000000000000000000000000000000000000000000020000000000080000000000000000000000000000000100000000000000000000000000000000000000000000000000000400000000000000000000000000000010000000000000000000000004400000000000000000000000000000000000",
      "type": "0x2",
      "transactionHash": "0xf02f3ffadaff75b42bce45933d7623a7099a089378b2e9ea6d39bfa726f29213",
      "transactionIndex": "0x90",
      "blockHash": "0xda799e6115097e4264a1a9bb3b56a11f1ed3cdfecc40e0d5f311a0ae3aa55135",
      "blockNumber": "0x86cece",
      "gasUsed": "0xb38a",
      "effectiveGasPrice": "0xf424f",
      "from": "0x473fa0f100981fffff40db48b29b97af9a44dbbc",
      "to": "0x538d6eb3d0014290f2f3c0c5b6d0998aa00d6293",
      "contractAddress": null
    },
    {
      "status": "0x1",
      "cumulativeGasUsed": "0x14b8399",
      "logs": [
        {
          "address": "0x779877a7b0d9e8603169ddbd7836e478b4624789",
          "topics": [
            "0xddf252ad1be2c89b69c2b068fc378daa952ba7f163c4a11628f55a4df523b3ef",
            "0x000000000000000000000000473fa0f100981fffff40db48b29b97af9a44dbbc",
            "0x000000000000000000000000a2865e4f36760f5fa5c8f958336120f2df0d974b"
          ],
          "data": "0x00000000000000000000000000000000000000000000000000346fe91f76a749",
          "blockHash": "0xda799e6115097e4264a1a9bb3b56a11f1ed3cdfecc40e0d5f311a0ae3aa55135",
          "blockNumber": "0x86cece",
          "blockTimestamp": "0x6882a2e4",
          "transactionHash": "0xc19fba56d0cfc7efc4577b562f4a7c133a4980f65cfa955ba099899de039201d",
          "transactionIndex": "0x91",
          "logIndex": "0x110",
          "removed": false
        },
        {
          "address": "0x779877a7b0d9e8603169ddbd7836e478b4624789",
          "topics": [
            "0x8c5be1e5ebec7d5bd14f71427d1e84f3dd0314c0f7b2291e5b200ac8c7c3b925",
            "0x000000000000000000000000473fa0f100981fffff40db48b29b97af9a44dbbc",
            "0x0000000000000000000000000bf3de8c5d3e8a2b34d2beeb17abfcebaf363a59"
          ],
          "data": "0x0000000000000000000000000000000000000000000000000000000000000000",
          "blockHash": "0xda799e6115097e4264a1a9bb3b56a11f1ed3cdfecc40e0d5f311a0ae3aa55135",
          "blockNumber": "0x86cece",
          "blockTimestamp": "0x6882a2e4",
          "transactionHash": "0xc19fba56d0cfc7efc4577b562f4a7c133a4980f65cfa955ba099899de039201d",
          "transactionIndex": "0x91",
          "logIndex": "0x111",
          "removed": false
        },
        {
          "address": "0x538d6eb3d0014290f2f3c0c5b6d0998aa00d6293",
          "topics": [
            "0xddf252ad1be2c89b69c2b068fc378daa952ba7f163c4a11628f55a4df523b3ef",
            "0x0000000000000000000000000000000000000000000000000000000000000000",
            "0x000000000000000000000000473fa0f100981fffff40db48b29b97af9a44dbbc"
          ],
          "data": "0x0000000000000000000000000000000000000000000000000000000000000016",
          "blockHash": "0xda799e6115097e4264a1a9bb3b56a11f1ed3cdfecc40e0d5f311a0ae3aa55135",
          "blockNumber": "0x86cece",
          "blockTimestamp": "0x6882a2e4",
          "transactionHash": "0xc19fba56d0cfc7efc4577b562f4a7c133a4980f65cfa955ba099899de039201d",
          "transactionIndex": "0x91",
          "logIndex": "0x112",
          "removed": false
        },
        {
          "address": "0x538d6eb3d0014290f2f3c0c5b6d0998aa00d6293",
          "topics": [
            "0xddf252ad1be2c89b69c2b068fc378daa952ba7f163c4a11628f55a4df523b3ef",
            "0x0000000000000000000000000000000000000000000000000000000000000000",
            "0x000000000000000000000000f7c896833867b337480e531152a299d5308317f3"
          ],
          "data": "0x0000000000000000000000000000000000000000000000000000000000000000",
          "blockHash": "0xda799e6115097e4264a1a9bb3b56a11f1ed3cdfecc40e0d5f311a0ae3aa55135",
          "blockNumber": "0x86cece",
          "blockTimestamp": "0x6882a2e4",
          "transactionHash": "0xc19fba56d0cfc7efc4577b562f4a7c133a4980f65cfa955ba099899de039201d",
          "transactionIndex": "0x91",
          "logIndex": "0x113",
          "removed": false
        },
        {
          "address": "0x538d6eb3d0014290f2f3c0c5b6d0998aa00d6293",
          "topics": [
            "0xddf252ad1be2c89b69c2b068fc378daa952ba7f163c4a11628f55a4df523b3ef",
            "0x000000000000000000000000473fa0f100981fffff40db48b29b97af9a44dbbc",
            "0x000000000000000000000000f7c896833867b337480e531152a299d5308317f3"
          ],
          "data": "0x00000000000000000000000000000000000000000000000000000000000186a0",
          "blockHash": "0xda799e6115097e4264a1a9bb3b56a11f1ed3cdfecc40e0d5f311a0ae3aa55135",
          "blockNumber": "0x86cece",
          "blockTimestamp": "0x6882a2e4",
          "transactionHash": "0xc19fba56d0cfc7efc4577b562f4a7c133a4980f65cfa955ba099899de039201d",
          "transactionIndex": "0x91",
          "logIndex": "0x114",
          "removed": false
        },
        {
          "address": "0x538d6eb3d0014290f2f3c0c5b6d0998aa00d6293",
          "topics": [
            "0xddf252ad1be2c89b69c2b068fc378daa952ba7f163c4a11628f55a4df523b3ef",
            "0x0000000000000000000000000000000000000000000000000000000000000000",
            "0x000000000000000000000000f7c896833867b337480e531152a299d5308317f3"
          ],
          "data": "0x0000000000000000000000000000000000000000000000000000000000000000",
          "blockHash": "0xda799e6115097e4264a1a9bb3b56a11f1ed3cdfecc40e0d5f311a0ae3aa55135",
          "blockNumber": "0x86cece",
          "blockTimestamp": "0x6882a2e4",
          "transactionHash": "0xc19fba56d0cfc7efc4577b562f4a7c133a4980f65cfa955ba099899de039201d",
          "transactionIndex": "0x91",
          "logIndex": "0x115",
          "removed": false
        },
        {
          "address": "0x538d6eb3d0014290f2f3c0c5b6d0998aa00d6293",
          "topics": [
            "0xddf252ad1be2c89b69c2b068fc378daa952ba7f163c4a11628f55a4df523b3ef",
            "0x000000000000000000000000f7c896833867b337480e531152a299d5308317f3",
            "0x0000000000000000000000000000000000000000000000000000000000000000"
          ],
          "data": "0x00000000000000000000000000000000000000000000000000000000000186a0",
          "blockHash": "0xda799e6115097e4264a1a9bb3b56a11f1ed3cdfecc40e0d5f311a0ae3aa55135",
          "blockNumber": "0x86cece",
          "blockTimestamp": "0x6882a2e4",
          "transactionHash": "0xc19fba56d0cfc7efc4577b562f4a7c133a4980f65cfa955ba099899de039201d",
          "transactionIndex": "0x91",
          "logIndex": "0x116",
          "removed": false
        },
        {
          "address": "0xa2865e4f36760f5fa5c8f958336120f2df0d974b",
          "topics": [
            "0xd0c3c799bf9e2639de44391e7f524d229b2b55f5b1ea94b2bf7da42f7243dddd"
          ],
          "data": "0x0000000000000000000000000000000000000000000000000000000000000020000000000000000000000000000000000000000000000000de41ba4fc9d91ad9000000000000000000000000473fa0f100981fffff40db48b29b97af9a44dbbc000000000000000000000000473fa0f100981fffff40db48b29b97af9a44dbbc00000000000000000000000000000000000000000000000000000000000002c2000000000000000000000000000000000000000000000000000000000000000000000000000000000000000000000000000000000000000000000000000000000000000000000000000000000000000000000000000000000000000000000001000000000000000000000000779877a7b0d9e8603169ddbd7836e478b462478900000000000000000000000000000000000000000000000000346fe91f76a74900000000000000000000000000000000000000000000000000000000000001a000000000000000000000000000000000000000000000000000000000000001c00000000000000000000000000000000000000000000000000000000000000220bb54cbc321c3a2d2ce5a0a92ce963e43d162d03d4e69612dffaf73e2e63ba84300000000000000000000000000000000000000000000000000000000000000000000000000000000000000000000000000000000000000000000000000000001000000000000000000000000538d6eb3d0014290f2f3c0c5b6d0998aa00d629300000000000000000000000000000000000000000000000000000000000186a00000000000000000000000000000000000000000000000000000000000000001000000000000000000000000000000000000000000000000000000000000002000000000000000000000000000000000000000000000000000000000000001600000000000000000000000000000000000000000000000000000000000000020000000000000000000000000000000000000000000000000000000000000008000000000000000000000000000000000000000000000000000000000000000c000000000000000000000000000000000000000000000000000000000000001000000000000000000000000000000000000000000000000000000000000015f900000000000000000000000000000000000000000000000000000000000000020000000000000000000000000f7c896833867b337480e531152a299d5308317f30000000000000000000000000000000000000000000000000000000000000020000000000000000000000000538d6eb3d0014290f2f3c0c5b6d0998aa00d629300000000000000000000000000000000000000000000000000000000000000200000000000000000000000000000000000000000000000000000000ba43b7400",
          "blockHash": "0xda799e6115097e4264a1a9bb3b56a11f1ed3cdfecc40e0d5f311a0ae3aa55135",
          "blockNumber": "0x86cece",
          "blockTimestamp": "0x6882a2e4",
          "transactionHash": "0xc19fba56d0cfc7efc4577b562f4a7c133a4980f65cfa955ba099899de039201d",
          "transactionIndex": "0x91",
          "logIndex": "0x117",
          "removed": false
        }
      ],
      "logsBloom": "0x0000000c000040000000000000000000000000000000000000000000000000000000000000000000000000000000000000000000000000000000000000200000000000000000000000000008000000000000000000000000000000000000000010000000020100000000000000000800010000000000100000000010000000000000000000000000000000000000800000000000000000000000000000000000020000000000080400000000000000000000000000000100000108010000000000000002000000000000000000000000000400000100000100000000000020000010800000000000000000000004400004000800001000000000000000000000",
      "type": "0x2",
      "transactionHash": "0xc19fba56d0cfc7efc4577b562f4a7c133a4980f65cfa955ba099899de039201d",
      "transactionIndex": "0x91",
      "blockHash": "0xda799e6115097e4264a1a9bb3b56a11f1ed3cdfecc40e0d5f311a0ae3aa55135",
      "blockNumber": "0x86cece",
      "gasUsed": "0x41d1c",
      "effectiveGasPrice": "0xf424f",
      "from": "0x473fa0f100981fffff40db48b29b97af9a44dbbc",
      "to": "0x0bf3de8c5d3e8a2b34d2beeb17abfcebaf363a59",
      "contractAddress": null
    }
  ],
  "libraries": [],
  "pending": [],
  "returns": {},
  "timestamp": 1753391845,
  "chain": 11155111,
  "commit": "f382351"
}