{
  "transactions": [
    {
      "hash": "0x46167f6d1723df6c02a5a9a8774c65218db751176a2663c8f2ebc1d83de3c676",
      "transactionType": "CREATE",
      "contractName": "Vault",
      "contractAddress": "0x8c53fce9581b2637963479b39d89215183988cb5",
      "function": null,
      "arguments": [
        "0x538D6EB3d0014290F2f3c0c5B6D0998aa00d6293"
      ],
      "transaction": {
        "from": "0x473fa0f100981fffff40db48b29b97af9a44dbbc",
        "gas": "0x583c1",
        "value": "0x0",
        "input": "0x60a03461007e57601f6104a138819003918201601f19168301916001600160401b038311848410176100825780849260209460405283398101031261007e57516001600160a01b038116810361007e5760805260405161040a908161009782396080518181816077015281816101aa01528181610247015261035b0152f35b5f80fd5b634e487b7160e01b5f52604160045260245ffdfe6080604081815260049081361015610021575b505050361561001f575f80fd5b005b5f925f3560e01c90816334a4edea1461034957508063d0e30db01461022c5763db006a750361001257346102285760209081600319360112610224578235926bffffffffffffffffffffffff841461018f575b847f00000000000000000000000000000000000000000000000000000000000000006001600160a01b0316803b1561018b578180916044865180948193632770a7eb60e21b835233898401528b60248401525af1801561018157610169575b5080808087335af13d15610164573d67ffffffffffffffff811161015157835190610107601f8201601f19168701836103b2565b815286853d92013e5b156101435750907f222838db2794d11532d940e8dec38ae307ed0b63cd97c233322e221f998767a691519283523392a280f35b90516303eff1c560e31b8152fd5b634e487b7160e01b875260418352602487fd5b610110565b6101729061038a565b61017d57845f6100d3565b8480fd5b84513d84823e3d90fd5b5080fd5b81516370a0823160e01b8152338183015290935082816024817f00000000000000000000000000000000000000000000000000000000000000006001600160a01b03165afa90811561021a5785916101e9575b5092610074565b90508281813d8311610213575b61020081836103b2565b8101031261020f57515f6101e2565b5f80fd5b503d6101f6565b82513d87823e3d90fd5b8380fd5b8280fd5b50905f36600319011261020f57815163292bdab360e11b81527f00000000000000000000000000000000000000000000000000000000000000006001600160a01b031691906020818381865afa90811561033f575f9161030d575b50823b1561020f5760645f928386519586948593630ab714fb60e11b8552339085015234602485015260448401525af18015610303576102f0575b50513481527fe1fffcc4923d04b559f4d29a8bfc6cda04eb5b0d3c460751c2402c5c5cc9109c60203392a280f35b6102fb91925061038a565b5f905f6102c2565b82513d5f823e3d90fd5b90506020813d602011610337575b81610328602093836103b2565b8101031261020f57515f610287565b3d915061031b565b84513d5f823e3d90fd5b3461020f575f36600319011261020f577f00000000000000000000000000000000000000000000000000000000000000006001600160a01b03168152602090f35b67ffffffffffffffff811161039e57604052565b634e487b7160e01b5f52604160045260245ffd5b90601f8019910116810190811067ffffffffffffffff82111761039e5760405256fea2646970667358221220fe85343cb251568faa127082977467aad76967a76111c5f7d7d5702b041b030264736f6c63430008180033000000000000000000000000538d6eb3d0014290f2f3c0c5b6d0998aa00d6293",
        "nonce": "0xcb",
        "chainId": "0xaa36a7"
      },
      "additionalContracts": [],
      "isFixedGasLimit": false
    },
    {
      "hash": "0x6969a1fff4f7f3f3b92a45dc6bf083663f03e4e68bcb7e42cd9fc6dc5f0077c4",
      "transactionType": "CALL",
      "contractName": null,
      "contractAddress": "0x538d6eb3d0014290f2f3c0c5b6d0998aa00d6293",
      "function": "grantBurnAndMintRole(address)",
      "arguments": [
        "0x8c53Fce9581b2637963479B39D89215183988cb5"
      ],
      "transaction": {
        "from": "0x473fa0f100981fffff40db48b29b97af9a44dbbc",
        "to": "0x538d6eb3d0014290f2f3c0c5b6d0998aa00d6293",
        "gas": "0x106ba",
        "value": "0x0",
        "input": "0xda9f7e0f0000000000000000000000008c53fce9581b2637963479b39d89215183988cb5",
        "nonce": "0xcc",
        "chainId": "0xaa36a7"
      },
      "additionalContracts": [],
      "isFixedGasLimit": false
    }
  ],
  "receipts": [
    {
      "status": "0x1",
      "cumulativeGasUsed": "0x13e43a0",
      "logs": [],
      "logsBloom": "0x00000000000000000000000000000000000000000000000000000000000000000000000000000000000000000000000000000000000000000000000000000000000000000000000000000000000000000000000000000000000000000000000000000000000000000000000000000000000000000000000000000000000000000000000000000000000000000000000000000000000000000000000000000000000000000000000000000000000000000000000000000000000000000000000000000000000000000000000000000000000000000000000000000000000000000000000000000000000000000000000000000000000000000000000000000000",
      "type": "0x2",
      "transactionHash": "0x46167f6d1723df6c02a5a9a8774c65218db751176a2663c8f2ebc1d83de3c676",
      "transactionIndex": "0x84",
      "blockHash": "0x871141a284c1d423dcf2ba1d29a65cc40753100494e3a97ce2e5dfcc0b80f9f2",
      "blockNumber": "0x86cd55",
      "gasUsed": "0x43df7",
      "effectiveGasPrice": "0x108956",
      "from": "0x473fa0f100981fffff40db48b29b97af9a44dbbc",
      "to": null,
      "contractAddress": "0x8c53fce9581b2637963479b39d89215183988cb5"
    },
    {
      "status": "0x1",
      "cumulativeGasUsed": "0x13f01d6",
      "logs": [
        {
          "address": "0x538d6eb3d0014290f2f3c0c5b6d0998aa00d6293",
          "topics": [
            "0x2f8788117e7eff1d82e926ec794901d17c78024a50270940304540a733656f0d",
            "0x7429555b03aa5cf08cc5fc0890c97db295c9cec5e6bb1544bcd7fd1430dae3e2",
            "0x0000000000000000000000008c53fce9581b2637963479b39d89215183988cb5",
            "0x000000000000000000000000473fa0f100981fffff40db48b29b97af9a44dbbc"
          ],
          "data": "0x",
          "blockHash": "0x871141a284c1d423dcf2ba1d29a65cc40753100494e3a97ce2e5dfcc0b80f9f2",
          "blockNumber": "0x86cd55",
          "blockTimestamp": "0x68829138",
          "transactionHash": "0x6969a1fff4f7f3f3b92a45dc6bf083663f03e4e68bcb7e42cd9fc6dc5f0077c4",
          "transactionIndex": "0x85",
          "logIndex": "0xf5",
          "removed": false
        }
      ],
      "logsBloom": "0x0000000c000000000000000000000000000000000000000080000400000000000000000100000000000000000000000000000000000000000000000000010000000000000000000000000000000000000000000000000000000000000000000000000000000000000000000000000000010000000000000000000000000000000000000000000000000000000000000000000000000000000000000000000000000000000000000000000000000000000000000000000104001000000000000000000000000000000000000000020000000400000000000100000000000000000000000000000000000000000004400000000000000000000000000000000000",
      "type": "0x2",
      "transactionHash": "0x6969a1fff4f7f3f3b92a45dc6bf083663f03e4e68bcb7e42cd9fc6dc5f0077c4",
      "transactionIndex": "0x85",
      "blockHash": "0x871141a284c1d423dcf2ba1d29a65cc40753100494e3a97ce2e5dfcc0b80f9f2",
      "blockNumber": "0x86cd55",
      "gasUsed": "0xbe36",
      "effectiveGasPrice": "0x108956",
      "from": "0x473fa0f100981fffff40db48b29b97af9a44dbbc",
      "to": "0x538d6eb3d0014290f2f3c0c5b6d0998aa00d6293",
      "contractAddress": null
    }
  ],
  "libraries": [],
  "pending": [],
  "returns": {
    "vault": {
      "internal_type": "contract Vault",
      "value": "0x8c53Fce9581b2637963479B39D89215183988cb5"
    }
  },
  "timestamp": 1753387321,
  "chain": 11155111,
  "commit": "a715f0c"
}